:100000000C9434000C9401010C9446000C944600AE
:100010000C9446000C9446000C9446000C94460048
:100020000C9446000C9446000C9446000C94460038
:100030000C9446000C9446000C9446000C94460028
:100040000C9446000C9446000C9446000C94460018
:100050000C9446000C9446000C9446000C94460008
:100060000C9446000C94460011241FBECFEFD8E03C
:10007000DEBFCDBF21E0A0E0B1E001C01D92A630FF
:10008000B207E1F70E9413010C94BF010C94000029
:100090002E9A00C02E980895CF93DF93D82F662311
:1000A00011F02C9A01C02C982D9884B18F6084B9DE
:1000B000C5B1C07F8D2F82958F708C2B85B90E9422
:1000C0004800DF70DC2BD5B90E944800CF60C5B96D
:1000D000DF91CF910895882311F02C9A01C02C98BC
:1000E0002D9A84B1807F84B92E9A00C093B12E9846
:1000F00000C02E9A00C023B12F70892F8295807F77
:100100002E98822B089580E00E946B008823DCF3F8
:1001100088E090E00197F1F780E00E946B0008957D
:10012000CF93C82F0E94830060E08C2F0E944C0068
:10013000CF910895611104C080580E9490000895E5
:1001400080540E949000089582E00E9490000895DB
:10015000CF93C82F0E948300CA3049F4803410F036
:1001600080E001C080E480580E94900004C061E0FB
:100170008C2F0E944C00CF910895CF93DF93EC0118
:100180002196FC018081882329F00E94A800899192
:100190008111FBCFDF91CF9108951F93CF93DF9310
:1001A000182F84B18F6784B980E09AEF0197F1F737
:1001B000299A289A0E94480080E09EE40197F1F76E
:1001C0000E944800C0E0D1E0CE010197F1F70E9403
:1001D0004800CE010197F1F728980E944800219726
:1001E000F1F788E20E94900088E00E94900086E08B
:1001F0000E949000812F0E949000DF91CF911F916B
:1002000008951F920F920FB60F9211248F939F9310
:100210009BB181E089278BB99F918F910F900FBE81
:100220000F901F901895CF93DF93CDB7DEB72A9725
:100230000FB6F894DEBF0FBECDBF92E097B981E054
:100240008AB95898909369008DBB1CBA7894ECE7F2
:10025000F0E0808181648083EAE7F0E08081876854
:100260008083EBE7F0E0808180830AE710E00F2EC7
:10027000F8E7CF2ED12CF02D0F2EF9E7EF2EF12C31
:10028000F02DF801808180648083F801808186FDF3
:10029000FCCFF6018081282F30E0309303012093BA
:1002A0000201F7019081892F90E0982F8827909381
:1002B000050180930401822B932B9093010180937D
:1002C00000014AE050E0BE016F5F7F4F0E947F0156
:1002D0008CE00E94CD000E94A40060E089E00E94B2
:1002E0009A00CE0101960E94BD00FFEF21EE84E04E
:1002F000F15020408040E1F700C00000C2CF4532FD
:10030000510520F4423010F00C948A01FB01108258
:10031000CB010895BB274A3031F4992322F4BDE282
:10032000909581959F4F0C949601BB27FB01552713
:10033000AA27880F991FAA1FA41710F0A41B839542
:100340005051B9F7A05DAA3308F0A95DA1930097B9
:1003500079F7B111B1931192CB010C94AF01DC018B
:10036000FC01672F71917723E1F7329704C07C91EC
:100370006D9370836291AE17BF07C8F30895F89428
:02038000FFCFAD
:00000001FF
